:100000001EC02BC02AC029C028C027C026C025C0BA
:1000100024C023C0798D9AA2AAFFA3A3A3A1A1A162
:10002000A3A3A3A1A1A114E6FF00000314FFFF00F6
:10003000000000005AFEFF00000789FFFEFF1124A8
:100040001FBECFE9CDBF20E0A0E6B0E001C01D9209
:10005000AC36B207E1F7D7D09FC1D2CF26EB33E061
:10006000019720F0F9013197F1F7FACF089588EE62
:1000700093E0F4CFCF93C091630081E08C0F8F7336
:100080008093630060916100962F9295990F907E06
:10009000609162006295660F660F607C692B90919B
:1000A0006000692B90E06BD16FEF8C2F90E0CF91C7
:1000B00066C1CF9310926300C0916300C034B8F45E
:1000C0008C2F90E055D18F3F21F4CF5FC093630018
:1000D000F3CF982F9F709093600085FB992790F93C
:1000E0009093610086FB882780F980936200CF910E
:1000F000089580916100811112C085E080936600AF
:1001000087E390E090936A00809369008BE290E02F
:1001100090936800809367008FE190E011C083E0C6
:100120008093660082E390E090936A008093690078
:1001300086E290E090936800809367008AE190E007
:100140009093650080936400809166008E5F809339
:100150006B000895811104C0611102C091EA9FBD36
:1001600089BD66BF089590E0E0916400F09165005C
:10017000E80FF91FE491EFBDE0916700F09168008E
:10018000E80FF91F6491E0916900F0916A00E80FAF
:10019000F91F8491DFCF369A3699FECF85B1089545
:1001A000FF920F931F93CF93DF93C82F8B01D4E15E
:1001B00081EAF82ECC2361F019BCD6BF84E690E02A
:1001C0004DDFFFBC19BC16BEC80148DFC150F2CFDD
:1001D000DF91CF911F910F91FF9008951F93CF93BF
:1001E000DF93EC01888111E08127888343DF68EE8B
:1001F00073E082E0D5DF8881182718833BDFDF9129
:10020000CF911F9134CFA39A83E687B986EC86B944
:100210003699FECF369A3699FECFC5B1B99AB89ABB
:1002200081EA8FBD81E083BF44DF63DFC63F90F08A
:1002300080916C008F5F8F7180936C008091600063
:100240008F5F80936000909166008917C8F01092CC
:10025000600016C010926C00C53B70F08091600089
:1002600090916600891799F3811102C080916B000B
:1002700081508093600004C080916200882339F32C
:10028000F9DEBB9AC39AA29A81E687B986EC86B951
:10029000369AD0E010E001EA80916000E0916900B8
:1002A000F0916A00E80FF11DC49190916C009031BB
:1002B00060F0DDDE10926C001092600081E690E04C
:1002C0008DDF82E690E08ADF26C0CE3F91F463DFC7
:1002D000982F80E0E82FF0E0EC5EFF4FE491E91703
:1002E00010F48F5FF7CF60E971E05ADFC0DEBFDE48
:1002F00012C039DF1F5F1B3548F0CF3F39F48091C2
:1003000066008250809360002EDFB4DE84EF91E0BF
:10031000A5DE10926C00349BBFCF85B1813728F5E4
:10032000DF5FD83018F1C091600080916600C81777
:1003300098F4CC2311F0C15010C00FBD19BC16BEEB
:1003400085B7877E806185BF85B7806285BF8895C8
:1003500085B78F7D85BF01C0C2E08C2F04DFC093BD
:10036000600088DE8AEF90E079DED0E0369A94CFA4
:10037000E199FECF8EBBE09A99278DB30895262F81
:10038000E199FECF1CBA8EBB2DBB0FB6F894E29A52
:0C039000E19A0FBE01960895F894FFCF8B
:00000001FF
